:10000000882F002025200000212000002120000052
:1000100000000000000000000000000000000000E0
:10002000000000000000000000000000212000008F
:10003000000000000000000021200000212000003E
:10004000212000002120000021200000CD0400001C
:1000500029030000212000002120000000000000F2
:100060002120000079090000890900009909000099
:10007000A90900000000000000000000212000008D
:100080002120000021200000C11C0000D11C000024
:10009000E11C000000000000000000000000000063
:1000A000000000000000000000000000212000000F
:1000B00010B5064C2378002B07D1054B002B02D03E
:1000C000044800E000BF0123237010BD7000002031
:1000D000000000006C60000008B5084B002B03D046
:1000E0000748084900E000BF07480368002B03D019
:1000F000064B002B00D0984708BDC046000000000A
:100100006C600000740000206C60000000000000C3
:1001100010B50020084B9847084CFA218900A047E9
:10012000074B1860FA218900A047064B186005228A
:10013000054B1A6010BDC046E919000019560000B1
:10014000040000200000002010E000E030B5084B63
:100150001C68084A00258021490206E0002C04D0D2
:100160005460956013680B42FCD00138F6D230BD64
:100170000000002010E000E00C4B1B68002B10D1A9
:10018000EFF31083002B09D172B6BFF35F8F00220B
:10019000074B1A700122074B1A7002E00022054B30
:1001A0001A70024B1A6801321A6070478C000020E6
:1001B0000800002090000020084B1A68013A1A60DD
:1001C0001B68002B09D1064B1B78002B05D00122A0
:1001D000044B1A70BFF35F8F62B670478C0000202B
:1001E0009000002008000020F0B5474680B482B09F
:1001F00001AC012666700027A77026701320211C11
:10020000274DA847274A904680231B0393612770F8
:1002100066701C20211CA8476670A77026705220AB
:10022000211CA8473E20211CA8473F20211CA8478D
:100230002F20211CA8471420211CA8478022D2026D
:10024000194B9A61803B8022D2059A618022120666
:100250009A61802212029A6180235B034246936175
:1002600027705320211CA847104B196A8022920343
:100270000A431A6204220E4B1A806B469E70DF708E
:1002800005236A461370567009206946094CA04739
:100290000C206946A04702B004BC9046F0BDC046A1
:1002A000A904000000440041004500410004004052
:1002B00000540042DD1B00001723002A0FD18B00E1
:1002C000084A9A58002A04D1191C064BC85000232A
:1002D00005E01D23121A501E824152421340181C81
:1002E0007047C0460C0E00201723002907D10023B9
:1002F0001F2800D8034B01228240DA600023181C1B
:100300007047C046001800401723002907D100237A
:100310001F2800D8034B012282409A600023181C3A
:100320007047C0460018004070B50022164B1A7086
:1003300000231F26154D144C1F2B10D919E014490A
:1003400000E000210A619B005B59002B00D0984718
:1003500023780133DBB223700F2B14D8ECE7321C67
:100360001A40012191400A1C094909691142E6D14C
:10037000EEE7321C1A40012191400A1C0021096954
:100380001142DED1E4E770BD080E00200C0E002003
:1003900000180040054B197802220A431A701A1CF3
:1003A00053785BB2002BFBDB7047C046001800405F
:1003B00000B583B0124B996940220A439A6101A9A2
:1003C00000230B7005200F4B984705200E4B9847D4
:1003D0000E4B197801220A431A701A1C53785BB22B
:1003E000002BFBDB0A4B191C4031002204C38B425B
:1003F000FCD11022074B1A60074B984703B000BD91
:1004000000040040011B0000751A000000180040A5
:100410000C0E002000E100E09503000000230360C3
:10042000436001220272427283720223C3727047D8
:10043000F0B583B0051C0C1C01A900234B70CB70D8
:1004400063680B70237A8B702078154B98470023D4
:100450001F2D00D8134B072129408900E07AA27A8A
:10046000002A01D008221043EA0892009A189669DF
:1004700088400F278F40BE43311C01439161627A4F
:10048000002A06D05A690121A9400D1C15435D615F
:1004900004E05A690121A9408A435A6103B0F0BDC2
:1004A000DD1B00000018004000B583B001AB8022C6
:1004B0001A700A785A704A789A708A78DA70191C19
:1004C000014B984703B000BDDD1B000010B5124B77
:1004D0001B681C68DA8A998A081C1040227AE17924
:1004E0000A40D10906D0410701D51B6998478023EE
:1004F000237210E0D10706D5C20701D59B68984743
:100500000123237207E0910705D5820701D5DB6837
:1005100098470223237210BD4C0E002010B5031C17
:100520004908402099420CD30024C91A601C80B2AB
:100530008B4201D8041CF8E74020FF2C01D814801E
:10054000002010BD00000000F0B55F4656464D4645
:100550004446F0B487B0061C0D1C049210AA107813
:10056000321C424340248A4200D9B3E0002B4BD1D5
:100570000021321C5E4CA04783462E1C0027002021
:100580000021002200233F24A4460125A846029012
:1005900003916146203903D440468840814605E0F6
:1005A000202165464C1B4046E0408146414664465A
:1005B000A1408A46101C191C80185941021C0B1CB2
:1005C0005D464C46254202D0424602430B1C9F42E8
:1005D0000CD801D1964209D8921BBB415046029DCE
:1005E00028434946039C2143029003916546013DFF
:1005F000AC46CED2029803993C4B3B4A121A8B412F
:10060000120C1B041A4362E00022012B5FD14F0F32
:10061000B946CD00AB460021321C0023344CA04724
:10062000061C0F1C00230125029603979A4650468C
:10063000C0B2059000218846002200233F24271CD9
:10064000203F03D42E1CBE40019604E02020071B4F
:10065000291CF94001912E1CA6400096101C191C63
:1006600080185941021C0B1C5F463740BC46019E56
:100670004F463E4067463E4302D02A1C02430B1CB5
:10068000039898420BD802D10299914207D8029E52
:10069000039F921BBB41474600980743B846013C65
:1006A000CDD2414652468B1ADB08124CA34208D9E0
:1006B000059A0132D2B205920126B2445746082F5C
:1006C000B5D140240598082804D042031A43049C5D
:1006D00022800024201C07B03CBC90469946A246CC
:1006E000AB46F0BDC046C04600000000010000005F
:1006F000B9560000FF1F000010B582B0041C0F4B5C
:100700001B78002B01D000290DD001A90C701320FB
:100710000B4B984713200B4B9847084B5C700122FA
:100720001A70002007E0054B5A781D20141B621E2A
:1007300094416442204002B010BDC04694000020A5
:10074000011B0000751A0000444B984233D006D8B4
:10075000434B98420DD0434B98421BD06FE0424B25
:1007600098424AD0414B984258D0414B984266D16A
:1007700032E0012965D0002904D0022906D00329DE
:1007800006D001E03B4867E0002065E03A4863E0BE
:100790003A4861E0012956D0002904D0022906D048
:1007A000032906D001E0032056E0002054E034483D
:1007B00052E0344850E0012947D0002904D00229F2
:1007C00006D0032906D001E02F4845E0002043E091
:1007D0002E4841E02E483FE0012938D0002904D0BE
:1007E000022906D0032906D001E02A4834E000207F
:1007F00032E0294830E029482EE0012929D000299B
:1008000004D0022906D0032906D001E0244823E0C1
:10081000002021E023481FE023481DE001291AD0D1
:10082000002904D0022906D0032906D001E01F4880
:1008300012E0002010E01E480EE01E480CE00020F0
:100840000AE01D4808E01D4806E01D4804E01D4878
:1008500002E01D4800E01D487047C04600100042FD
:1008600000080042000C004200180042001C004238
:100870000014004203000400030006000300070008
:1008800003001E0003001F0002000C0002000E0007
:1008900002000F0003001000030012000300130009
:1008A0000500530005003E0005005200030016003D
:1008B00003001800030019000300050003000100F5
:1008C00002000D000300110005003F0003001700A7
:1008D00070B586B00C4A6B4670CA70C332CA32C358
:1008E000009E864206D001239A00694652588242F1
:1008F00003D100E00023D8B203E00133062BF3D18B
:10090000002006B070BDC046F85E00007047C046CB
:10091000F0B50A4B1B78002B0CD1094F094E0A4D3C
:100920000024DE515A1914600433182BF9D1012226
:10093000024B1A708000024BC150F0BD980000209D
:100940009C0000200D090000500E002010B582B060
:10095000041C684605490622054B9847201C054B98
:1009600098476B46185602B010BDC046105F000095
:1009700049570000D108000008B5024B1B68002051
:10098000984708BD9C00002008B5024B5B68012019
:10099000984708BD9C00002008B5024B9B680220C8
:1009A000984708BD9C00002008B5024BDB68032077
:1009B000984708BD9C000020F0B55F4656464D465E
:1009C0004446F0B489B0071C0D1C141C39600B6838
:1009D000980700D48DE0916A0391D26A0492236B48
:1009E0000593606B06900026B1461F229046F1B237
:1009F000B30003AA9858002802D1281C8F4B9847AF
:100A0000411C29D00204120C9446030CDAB2494668
:100A1000180603D45109C901894BC9184046104032
:100A20000B1840331B789A4680239B465346DB07BE
:100A30000CD54008091830310B78DBB2D00702D54D
:100A40001B099B4602E00F2213409B46DC4503D066
:100A500000233B601C20EAE00136042EC7D113209E
:100A6000784B9847011C23780026012B11D1A069EF
:100A700002AA754B9847031C1720002B00D0D6E024
:100A80002B7BDBB202AA12781C209A4200D0CEE067
:100A90000C26A26861680A43E3681A433243237C48
:100AA000617C002901D080210A43A17C002902D069
:100AB000802189020B43E17C002902D0802189003A
:100AC0000B43217D002902D0802189010B43296835
:100AD000022002438A4208D16A689A4205D12378EB
:100AE0007B71237CBB710020A1E000233B601C20B4
:100AF0009DE00B680520D90700D598E0281C534BD2
:100B00009847534B196A821C01269640321C0A43AF
:100B10001A6207A92426A35D0B701430C0B2804668
:100B20004C4B984740464C4B9847A05D00214B4B9F
:100B300098472378012B03D12A680C2313432B6099
:100B40003E6802AB80221A7000225A70012199700F
:100B5000DA702378002B01D102AB9A70A26A03925B
:100B6000E36A0493206B0590616B06910025E9B25E
:100B7000AB0003AA9858002802D1301C2F4A904796
:100B8000431C06D069460872000CC0B202A9344A60
:100B900090470135042DEAD123787B71237CBB710A
:100BA000A37CFB71237D3B7200226B46DA802378A5
:100BB000012B14D13868254B98471430C0B2214B13
:100BC0009847011CA0696A4606321F4B9847031CD0
:100BD0001720002B2BD16B4606331B783373A2688A
:100BE00063681A43E0680243237C617C002903D1D7
:100BF0001C498978880701D580210A43A17C0029F6
:100C000002D0802189020B43E17C002902D080219F
:100C100089000B43217D002902D0802189010B43EB
:100C200031680A433260726813437360002009B070
:100C30003CBC90469946A246AB46F0BD4907000031
:100C4000004400411D1B00001D050000D1080000EC
:100C500000040040011B0000751A0000F9060000A6
:100C6000DD1B00000020004110B544791523012C44
:100C70006CD1047A0023002C68D1002A57D04B781D
:100C8000002B44D00268137EDC070FD40B78D909FF
:100C90000022002903D15A09D2012D4952181F21DF
:100CA0000B4001219940916105234FE00B78DC094D
:100CB0000022002C03D15A09D201254C12191F24FD
:100CC000234001249C405461897803681A7ED4072C
:100CD00000D59962C2790023002A37D10268042125
:100CE000137E0B42FCD0117E00234C072ED5538B74
:100CF000590703D5518B04230B4353838379012B6D
:100D000002D1936A002321E0936A00231EE00B784E
:100D1000D9090022002903D15A09D2010C4C121919
:100D20001F210B4001219940516100230EE00B78F7
:100D3000D9090022002903D15A09D20104495218C5
:100D40001F210B400121994091610023181C10BD07
:100D500000440041F0B55F4656464D464446F0B467
:100D600091B0051C0C1C161C2960081CAD4B984743
:100D7000021C23680520D90700D54BE123681C20FD
:100D80009F0700D546E1A84B186A911C01278F40A8
:100D9000391C014319620FA92D27F35D0B70143222
:100DA000D2B29046101CA14B98474046A04B9847A2
:100DB000F05D00219F4B9847F37A6B712423F35C1D
:100DC000AB712523F35CEB71F37E2B72337F6B7277
:100DD00029688846081C934B9847143000226B46BC
:100DE000DA84328A02928023DB019A4221D0802366
:100DF000DB019A4204D880239B019A4211D008E07B
:100E0000C023DB01029F9F420FD080231B029F4221
:100E100003D01027069700270EE003270697002728
:100E20000AE010270697012706E008270697012702
:100E300002E008270697002731680391F26891467F
:100E400073690493317E8A462623F35C9B4673685C
:100E5000002B13D08022520593422ED12723F35C1E
:100E6000002B2ED1376AC0B2734B9847011C381C37
:100E70006A462632714B9847031C1FE02723F35C18
:100E8000002B0AD0069A0092306AB16A6A4626326E
:100E90003B1C6B4FB847031C10E0316A0791C0B28E
:100EA000654B9847011C069A009207986A462632BD
:100EB0003B1C634FB847031C00E00023181E00D002
:100EC000A8E0737E002B02D0B37E41468B732A6864
:100ED000029FD369002BFCD102976B4626331B88F7
:100EE000424693814B46039F3B43049F3B437168BB
:100EF0000B43029F1F43524613021F4359464B07A1
:100F00001F432723F35C002B01D104231F43717E71
:100F10008902337F5B021943F27AB37A1343194390
:100F2000737F1B0219432423F35C5B0419432523BD
:100F3000F35C1B0419433389FF2B0BD0F27E002A8C
:100F400003D0A022D204174302E0802252041743A8
:100F5000194305E0F37E002B02D08023DB041F43FE
:100F60002C23F35C002B03D1364B9B789A0701D5D9
:100F700080231F432A68D369002BFCD14346596064
:100F80002A68D369002BFCD141460F600EAB80224A
:100F90001A7000225A70DA709A70326B0A92736B70
:100FA0000B93B76B0C97F66B0D9600270EAEF9B24C
:100FB000BB000AAA9858002802D1201C224A904758
:100FC000431C05D03070000CC0B2311C1F4A904742
:100FD0000137042FEBD10023EB602B616B61AB6118
:100FE000EB612B62AB626B620022EB85AB85302339
:100FF000EA543123EA543223EA543323EA5428686A
:10100000084B9847041C1249124B9847A400124BF6
:10101000E550002011B03CBC90469946A246AB4634
:10102000F0BDC046D108000000040040011B0000D4
:10103000751A0000F90600001D1B00001D050000C8
:10104000490500000020004149070000DD1B0000A9
:101050005D12000011090000500E002010B5021CA6
:101060000368C4791C20002C0DD0D28D92B20520CB
:10107000002A08D1DA69002AFCD1198502211A7EDA
:101080000A42FCD0002010BD10B5031C0468827910
:101090001C20002A33D09B8D9BB20520002B2ED123
:1010A000237E5A072BD5E369002BFCD1638BDBB27F
:1010B0009A0621D09A0703D5022363831A201EE0E3
:1010C0005A0703D5042363831E2018E0DA0703D5EB
:1010D00001236383132012E0DA0605D5628B102307
:1010E0001343638342200AE09A0605D5628B2023CE
:1010F00013436383412002E0238D0B80002010BD49
:10110000F0B557464E464546E0B4061C88461720C3
:10111000002A4AD0F3791C20002B46D03468E369BA
:10112000002BFCD1924600270125224A91461FE060
:10113000227E2A4204D1012B29D0013B002BF7D17A
:101140007B1C9BB24246D15D7279012A01D01F1CE3
:1011500005E0BA1C97B24246D35C1B021943301C0F
:10116000154B98475346013B9BB29A46002B16D02D
:10117000237E2B42E4D14B46DAE7227E0A4208D195
:10118000012B08D0013B002BF7D100200DE01220ED
:101190000BE0002009E0122007E0002005E0237E9C
:1011A0009A07FAD4034B0221E7E71CBC9046994604
:1011B000A246F0BDFFFF00005D100000F0B55746ED
:1011C0004E464546E0B482B0061C88461720002AE9
:1011D00039D0B3791C20002B35D0356892460027D2
:1011E00004241C48814629E02A7E224204D1012B96
:1011F00021D0013B002BF7D16946063100230B803B
:10120000301C154A904700281DD17B1C9BB26A46B2
:10121000063212884046C2557179012903D1B91CA2
:10122000120AC2548BB25246013A92B29246002A36
:1012300003D1002007E0122005E01F1C2B7E234273
:10124000DAD14B46D0E702B01CBC90469946A24684
:10125000F0BDC046FFFF000089100000F8B5800017
:10126000644BC5582C68E369002BFCD1237EA67D16
:101270001E403123EB5C3022AF5C1F40F10720D5CC
:10128000EB8D9BB2002B1AD0AB6A1A78D2B2591CE4
:10129000A9626979012904D1597809020A43023304
:1012A000AB62D305DB0D2385EB8D013B9BB2EB8558
:1012B000002B06D1012323750223A37501E001232E
:1012C0002375B20709D50223237500223323EA547C
:1012D000FB0702D5281CE968884772076AD5AB8DE1
:1012E0009BB2002B64D0638BDBB2190702D43F2280
:1012F000134001E037221340002B37D09A0707D55F
:101300001A223223EA54628B02231343638327E0B9
:10131000590707D51E223223EA54628B0423134354
:1013200063831DE0DA0707D513223223EA54628B68
:1013300001231343638313E0D90607D542223223E6
:10134000EA54628B10231343638309E020221A427C
:1013500006D041223223EA54628B20231343638355
:101360007A0727D5281C6B69984723E0228DD20580
:10137000D20DD3B2696A0B706B6A591C69626979C4
:10138000012904D1120A5A706B6A01336B62AB8D6A
:10139000013B9BB2AB85002B0CD1042323750022AB
:1013A0003223EA54BA0705D5281C2B69984701E077
:1013B00004232375F10607D5102323752376FA0637
:1013C00002D5281CEB699847B10607D52023237561
:1013D00023763A0702D5281CAB699847310707D511
:1013E000082323752376BA0602D52B6A281C984752
:1013F000F8BDC046500E002008B5082834D880003B
:101400001B4B1B589F468020000230E0194B186987
:101410002DE0194B186A8005800F184BC340181C2B
:1014200025E0144B586922E0124B1B68022018403B
:101430001DD011491022CB681A42FCD00D4B1B68FD
:101440005A0713D500200E4B98470A4B9B681B0484
:101450001B0C58430BE05023074AD35C00205A076B
:1014600005D5044BD86802E0002000E0054808BD1F
:10147000185F0000B40000200008004000127A004D
:101480001D1B0000006CDC0270B50C4B1C6A01785F
:10149000857840780122104080014026B4430443FF
:1014A0002A40D00180229443221C024303200140A1
:1014B0000902034802400A431A6270BD0008004056
:1014C000FFFCFFFFF0B54F464646C0B4194A946989
:1014D00041788C4605780679C778437999468078B3
:1014E00001231840800004218C43044360461840C7
:1014F000C00008218C430443181C38408001402759
:10150000BC430443181C3040C0018026B44304434C
:10151000072028400002084D2C40044349460B4058
:1015200019030648231C03400B4393610CBC9046EF
:101530009946F0BD00080040FFF8FFFFFFEFFFFFF6
:10154000F0B55F4656464D464446F0B4254A948A67
:1015500045780378594259418A4683789C46C17838
:10156000884603799946467B077B817B8B4680685A
:101570001D4B586101235146880004218C430443CC
:1015800048461840C00008218C4304434046184098
:10159000000110218C430443604618404001202183
:1015A0008C430443181C384080014027BC4304434B
:1015B000181C3040C0018026B44304430720284053
:1015C00000020A4D2C40044359460B4019030848B9
:1015D000231C03400B4393823CBC90469946A24691
:1015E000AB46F0BD00080040B4000020FFF8FFFF4C
:1015F000FFEFFFFF10B5027A9206120C43899B059C
:101600009B0D1A43154B5A60818842881143C47957
:10161000827922430A434178C9010A431A60037858
:10162000042B0FD1027B9206038A1A43C3891B0441
:101630000B490B401A43094B9A60196804220A436C
:101640001A6009E0202B07D1028A044B9A601968BE
:101650008422D2000A431A6010BDC046B4000020A4
:101660000000FF03082843D88000224B1B589F46E8
:1016700000203EE0204B196A02220A431A62002031
:1016800037E01D4B996902220A439A61002030E03D
:10169000194B198A02220A431A82002029E0164BAC
:1016A000998A02220A439A82002022E0134B196889
:1016B00002220A431A601A68114B1A400E4B9A8490
:1016C000191C1022CB681A42FCD00C4A91680A4BB4
:1016D000D96251689962126892B29A84002008E037
:1016E000054A4423D05C02210143D154002000E08C
:1016F000172070473C5F000000080040B400002045
:101700007FFF0000F0B557464E464546E0B490B026
:10171000C222D2005E4B9A605E4B5A681E218A43F9
:1017200004210A435A60032201AB1A7000245A4D67
:10173000E0B201A9A8470134252CF9D10CA8002357
:101740000370802212028260C3700122027103734F
:1017500083730621417082704373504B9847052074
:101760004F4B98474A490222CB681A42FCD0484B5B
:10177000998A80220A439A824A4A1168C904490E0A
:1017800009049869484A02400A439A610AA8012656
:1017900046708670067107240470002290464271DC
:1017A000C670424B984704203D4FB84705A8002516
:1017B0004246428082808571C57104723F23438115
:1017C0000422914602704570B722D200028204734F
:1017D000C381374B984704A8457005708570354B19
:1017E00098470620B847344B984701AC666065704F
:1017F00025726572052323700120211C2F4B9A4608
:10180000984701202E4A90469047657065724B4676
:10181000237020229146626026720220211CD0474C
:101820000220C047657025726572032323704A4603
:1018300062600420211CD0470420C047267000208D
:10184000211C154B984700201E4B98470720B8478E
:101850000F49D022CB681340D02BFBD11A4A00236A
:1018600013725372937201A901224A604B700B727A
:101870004B7207230B700020104B98470020104B31
:10188000984710B01CBC90469946A246F0BDC04691
:101890000008004000400041011B0000411500000D
:1018A0006516000024608000FFFF80FFC514000063
:1018B000F515000089140000CD180000F118000093
:1018C000A5190000751A000000040040064B996934
:1018D00008220A439A610122044B1A70191C0B78E2
:1018E0001342FCD17047C04600040040000C004089
:1018F000F8B5061C071C0D782D0205434B78002B0C
:1019000002D08023DB021D434B7A002B02D08023C0
:101910001B031D434C68012C17D9631E1C420FD1B9
:10192000022C06D90223002201325B009C42FBD824
:1019300000E000221702374380235B031D4304E0CD
:101940002702374380239B021D430B7A002B02D0D2
:1019500080239B031D430F4A53785BB2002BFBDBB4
:101960000D4B98470D4B1E700A4A53785BB2002B03
:10197000FBDB084B9F601A1C53785BB2002BFBDB30
:10198000044B5968802252020A4015435D60044BA3
:101990009847F8BD000C004079010000080C004099
:1019A000B901000010B5041C0B4A53785BB2002B40
:1019B000FBDB0A4B98470A4B1C70074A53785BB213
:1019C000002BFBDB044B5968802252020A435A6009
:1019D000044B984710BDC046000C00407901000040
:1019E000040C0040B901000070B5041C1A4A537879
:1019F0005BB2002BFBDB194B9847194B1C70164A46
:101A000053785BB2002BFBDB134E7068C004C00E32
:101A1000144B9847051C124B1C707668F602F60FA3
:101A2000114B1C700C4A53785BB2002BFBDB0A4B4A
:101A30009C68240AA4B20D4B9847002E07D1012CB4
:101A400007D9281C211C0A4B9847051C01E00134CA
:101A5000E540281C70BDC046000C00407901000024
:101A6000040C0040F9130000080C0040B90100000C
:101A70001956000010B5041C064B9847064B1C7005
:101A8000064B59888022D2010A435A80044B98475A
:101A900010BDC04679010000020C0040000C00405F
:101AA000B901000010B5041C0F4B98470F4B1C7078
:101AB0000F4B58880005000F59880E4A0A405A807B
:101AC00059880D4A0A405A80191C8022D2014B883D
:101AD0001342FCD1064B01025888064A02400A43D1
:101AE0005A80064B984710BD79010000020C004057
:101AF000000C0040FFF0FFFFFFBFFFFFB901000037
:101B000010B50C7824020443024B9847A4B2024B50
:101B10005C8010BDA51A0000000C004010B5041C2C
:101B2000064B9847064B1C70064B5C882405240F17
:101B3000054B9847201C054B984710BD79010000C4
:101B4000020C0040000C0040B9010000E91900003F
:101B500030B5D378002B1ED11378802B04D01B0610
:101B600080246402234300E0002354780225AC4320
:101B70000AD19478002C03D18024A402234302E0EC
:101B8000C024E402234341605478013C012C04D872
:101B9000114C234001E0416000230D042D0CA024D2
:101BA000E4052C431C4384620D0CD02424062C43F2
:101BB0001C438462D478002C0CD15C0305D5937847
:101BC000012B01D1816100E041615378013B012B80
:101BD00000D8816030BDC046FFFFFBFF08B5031C85
:101BE0000A1CC1090020002903D15809C001044979
:101BF00040181F210B4001219940024B984708BD16
:101C000000440041511B00007047C04608B5044B1A
:101C10009847044B9847044B9847044B984708BD96
:101C200005170000E9010000091C0000B1030000D5
:101C3000931C9B001950022A04D1027E10231343E7
:101C400003760CE0032A04D1027E2023134303769B
:101C500005E0012393401A1C037E1A4302760020FC
:101C60007047C04638B58000144BC4582268957B35
:101C7000237E1D40637E1D40EB0705D5201CA26816
:101C80009047012322689373AB0705D5201CE268B7
:101C90009047022322689373EB0605D5201C226926
:101CA0009047102322689373AB0605D5201C626908
:101CB0009047236820229A7338BDC046680E0020E2
:101CC00008B50020014B984708BDC046651C0000C0
:101CD00008B50120014B984708BDC046651C0000AF
:101CE00008B50220014B984708BDC046651C00009E
:101CF00070B584B0011C01AB0A4A70CA70C3019B65
:101D000083420AD0029C844205D00020039D8D426C
:101D100005D1022002E0012000E00020C0B204B0A2
:101D200070BDC046605F0000F0B54F464646C0B487
:101D300087B0041C0D1C9046081C904B98478146A8
:101D40008F4F391C0C3105A803228E4EB047391C29
:101D5000103103A80622B0470023A360E36023618B
:101D600063612376637648468200874BD4502560B2
:101D700041468B78082B04D117204A46D20700D45D
:101D8000F6E023712B880520D90700D5F0E0EB7B26
:101D90001C20DA0600D5EBE02B88990700D5E7E098
:101DA0004246137C002B0CD002A901238B70002229
:101DB000CA704046806908704B704246107D734B74
:101DC00098474046037F002B0BD002A901238B705C
:101DD0000022CA70426A0A704B70036AD8B26B4B19
:101DE00098476B4B196A4846420003A8125A0A43A7
:101DF0001A6241468B78082B08D1654B1A6A48460F
:101E00000130400003A9415A0A431A6201A942461F
:101E100013780B7005AB48461E5C301C5D4B984731
:101E2000301C5D4B9847414688880B89034388796D
:101E30008A78104318434B78002B02D080231B0173
:101E4000184321687F22CB7B9343FCD128804246F4
:101E5000507B431E98418000937B002B01D00123CF
:101E6000184321687F22CB7B9343FCD1FF232B7146
:101E7000002805D021687F22CB7B9343FCD1687179
:101E80004346987ADB7A002B01D010231843414651
:101E90000B7B002B01D02023184321687F22CB7BB2
:101EA0009343FCD1A87122687F21D37B8B43FCD163
:101EB0002379042B05D0082B41D01720002B57D1B4
:101EC00024E07F21D37B8B43FCD128234246D35C83
:101ED0002B7421687F22CB7B9343FCD1292340467E
:101EE000C35C2B7521687F22CB7B9343FCD12A23D3
:101EF0004146CB5C2B7621687F22CB7B9343FCD180
:101F00002B234246D35C6B76002031E07F21D37BCC
:101F10008B43FCD14046038D2B8221687F22CB7BF3
:101F20009343FCD141464B8D2B8321687F22CB7B91
:101F30009343FCD14246938D6B83002018E07F21B0
:101F4000D37B8B43FCD143469B6A2B6121687F2264
:101F5000CB7B9343FCD14046C06AA86121687F22B5
:101F6000CB7B9343FCD141460B6BEB610020FFE739
:101F700007B00CBC90469946F0BDC046F11C00006D
:101F8000605F000049570000680E0020DD1B000064
:101F900000040040011B0000751A000002687F2148
:101FA000D37B8B43FCD10379042B05D0082B09D0BC
:101FB0000020002B08D102E0107CC0B204E0108A9F
:101FC00080B201E01069FFE77047C04630B5046891
:101FD0007F25E37BAB43FCD10379042B05D0082B91
:101FE00014D01720002B19D107E01720012915D88C
:101FF000D2B261180A76002010E0172001290DD80E
:1020000092B20C3149000A53002007E01720012941
:1020100004D8063189000A510020FFE730BDC046D0
:10202000FEE7C04610B5194B194A9A4203D0194B26
:10203000164A9A4204D3184B184A9A4210D31BE00E
:10204000174B14480330C01A800801308000002369
:102050000E490F4AD458CC5004338342FAD1EAE7F0
:102060000E4B1A1D0C490331891A89088900521830
:10207000002102C39342FCD10A4B7F210A4A8A43C2
:102080009A600A4B98470A4B9847FEE700000020E9
:102090006C60000070000020880F0020700000209D
:1020A0000400002000ED00E000000000FD560000EC
:1020B000E9540000F0B5474680B40C1C9046002857
:1020C0000CD1002A0DDD8F18094E0A4D3068211CF5
:1020D0002B6898470134BC42F8D104E0012040420B
:1020E00002E0002000E0404604BC9046F0BDC0463F
:1020F0007C0E0020740E0020F0B5474680B40E1C04
:10210000151C0138022810D8002A11D000240D4BCC
:1021100098460D4F43461868315D3B689847002844
:1021200008DB0134A542F5D107E00120404205E07B
:10213000002003E00120404200E0201C04BC904647
:10214000F0BDC0467C0E0020780E0020064B1B68B8
:10215000002B02D1054A044B1A60034A1368181871
:102160001060181C7047C046CC000020882F00204B
:10217000012040427047C0460020704770B582B0D1
:10218000051C0E1C00226B46DA80064C281C694692
:102190000631A0470028F9D16B4606331B883370FF
:1021A00002B070BD8910000070B5061C0D1C034CF8
:1021B000301C291CA0470028FAD170BD5D1000001A
:1021C00010B582B06C4607341248211C0122124B14
:1021D000984772B6BFF35F8F0022104B1A70104BF6
:1021E0001A7801321A700F4B1B7821780E4AD1549D
:1021F0009B2B03D100220B4B1A7002E00133094ADA
:1022000013700122054B1A70BFF35F8F62B602B0E4
:1022100010BDC04670010020BD1100000800002064
:10222000A5010020A4010020D4000020F0B591B049
:102230008023DB05009300230193FF22684602817F
:1022400000228372C372012624214654252146545C
:1022500026214354272143540A932C2143542D21F2
:10226000435405930382C3760276027742761323A2
:102270008376427780235B0303932C4B0C932C4B88
:102280000D9301235B420E930F9396231B02089339
:10229000284C294B1C60294A294B1A60294A2A4B91
:1022A0001A60201C29496A46294B9847294F3B68E8
:1022B00098680021284DA8473B6858680021A84726
:1022C0002568281C254B98471F2318408640244B1F
:1022D0001E602268D369002BFCD12A6802231343B5
:1022E0002B60144B1B68DA69002AFCD159688022E4
:1022F00052020A435A6001210E4AD171DA69002A5A
:10230000FCD15968802292020A435A600122094B8B
:102310009A7100201349144B984704220B4B9A756D
:10232000802292000E4B1A6011B0F0BD0300040031
:1023300003000500700100207C0E0020A921000090
:10234000780E00207D210000740E0020000800425D
:10235000550D00006C000020415800004D090000A0
:1023600000E100E0C121000011090000F8B5071CE0
:102370000C1C054E054D301C391C221CA84700289A
:10238000F9D1201CF8BDC0467001002001110000E9
:10239000F0B5031C1B4A12780020002A30D09B2A7B
:1023A00013D9194A1078194A10709C20154A1070D8
:1023B0009B290FD99C21154A1278124807784D1E87
:1023C000EDB201355D19124C07E0081C914200D9AD
:1023D000101CC1B2081E13D0EDE7A05C18700132CA
:1023E000D0B20133021C9C3A561EB2415242024006
:1023F000AB42F2D1054B1A707A1A024B1A70081CC4
:10240000F0BDC046A5010020A4010020D00000209E
:10241000D400002000B583B06B46D8710733181C78
:102420000121024B984703B000BDC0466D23000058
:1024300080221203014BDA617047C046004400411C
:10244000F8B5041C0020002929D02278102A26D1B2
:10245000052924D1124E301C124FB847124D281CAA
:10246000B8476278A3781B021343B3600023337329
:102470000E4B3361301C0E4EB047E27823791B02BD
:102480001343AB6001232B730A4B2B61281CB0470D
:1024900080221203084B5A61084B98470120F8BD6F
:1024A000B001002091450000F40100204925000002
:1024B000054600003124000000440041992B000033
:1024C00008B5031C8068197B014B984708BDC046BE
:1024D00041240000F8B50F4B1B68002B19D10E4F9B
:1024E000FC1C30370B4E0D4D2378002B0ED0E31E15
:1024F00033601A785B781B0213436B81631C2B617A
:10250000631E1B782B75281C054B98470934BC4269
:10251000EAD1F8BDA80100200C020020D40100205F
:10252000292C000008B5064A136801214942197098
:1025300059700021D9701160024B984708BDC04600
:10254000A8010020D524000008B5054B984780223B
:102550001203044B9A610448044B984708BDC046D7
:10256000A92B000000440041F40100209145000027
:1025700010B5134B00221A7312491961124B012135
:10258000197312491961124B1A60124B5A810222B7
:102590001A735A739A73104A9A6100230F480121E3
:1025A00049420024DA00D218115482185170D470B4
:1025B0000133052BF6D1022009490A4B984710BD7B
:1025C000B001002049250000F40100203124000062
:1025D000A8010020D4010020252500000C020020C5
:1025E000C1240000892B000008B5031C134A92681F
:1025F0001202120C824215D0104A528A82420DD029
:102600000E4AD17E127F12020A43824208D00B4A40
:10261000928C00209A420FD1042304E0022302E0AE
:10262000032300E00123DA00D318044AD31801225F
:10263000DA70034B9847012008BDC0460C02002009
:10264000D524000000B583B0654B1A78042A00D960
:10265000C4E09300634AD3589F46102800D0BDE0E1
:102660000022614B1A701022604B1A7001225C4BE1
:102670001A70B3E05D4B1A7882181A70022803D1E1
:102680000222574B1A70A9E00022554B1A70A5E0A0
:10269000564B1A7882181A70102803D10322504B17
:1026A0001A7005E0504A1378591C1170504AD054E2
:1026B0004D4B1B78102B00D090E00022484B1A7035
:1026C0008CE04A4B1A7882181A70102810D14649AB
:1026D0000A78531CDBB20B7045498854102B03D188
:1026E00000223F4B1A7079E002223D4B1A7075E0D0
:1026F000032803D104223A4B1A706FE00022384BB2
:102700001A706BE0394B1B78834264D1364B1B78CF
:10271000082B60D9364B1B78102B5CD168460370B0
:10272000334B99680A02120C4270120A8270D97AED
:102730001A7BC17002711A68110A1A7912060A43CB
:1027400093B2002B03D105212A4B984743E0100494
:102750002FD5294A91680902090C284A914217D0BD
:10276000254A518A254A91420ED0234AD07E117FB4
:1027700009020143214A914208D01F4A918C1F4A05
:10278000914228D1042204E0022202E0032200E068
:102790000122194809214A43835480181B0A4370B7
:1027A000052282700023C37004306946144B984799
:1027B00011E0114A1188114A91420CD10E4A13803E
:1027C000052393700123D370009951606846037903
:1027D00013720C4B98470022014B1A7003B000BDD6
:1027E00008020020785F0000A6010020AC01002054
:1027F000C4010020412400000C020020FFFF000063
:1028000049570000D524000008B5064B1B78042B5F
:1028100003D10122034B1A7002E00348034B98478F
:1028200008BDC046500200205402002005460000AA
:10283000F0B5474680B4061C0D1C1020154CA0476F
:102840000220A047002D19D0341C0136013DEDB205
:102850007619B04600260F4F251C2378102B04D183
:1028600010200C4B98471036F6B22878B8472B78D2
:10287000F618F6B201344445EED100E000261020EF
:10288000044CA0470320A0472536F0B2A04704BC63
:102890009046F0BD1524000010B5041C836880210B
:1028A00009030A4AD161427B5A76827B9A76017B80
:1028B0008068074B98472088064B9847002802D02D
:1028C0000120054B9847012010BDC046004400413F
:1028D00031280000E92500008537000070B5002888
:1028E0000AD00C1C0131013880B20E18034D20783B
:1028F000A8470134B442FAD170BDC0464526000055
:1029000070B582B0094B984701AC002323700126B3
:102910006670A3701C20211C054DA847267013204B
:10292000211CA847034B984702B070BD85440000A6
:10293000A90400002D220000F8B5574B9847574BCB
:102940001B78012B65D0002B03D0032B00D193E023
:1029500098E0534B01241C7000225A70002500217E
:1029600059809980D98019815A814E4ADA60802233
:1029700012021A614C4E9E820F229A750022DA755D
:102980001A765D769D76DC760C22FF21D2B2DA6172
:10299000202200209854186A08401862002724203A
:1029A0001F54586A01405962002028215854292197
:1029B0005A540B212A229954181C2B303B490B22C4
:1029C0003B4B984700203B4B9847301C3A4B98476D
:1029D0000F203A4B98470120394B984739483A4BDA
:1029E0009847012039493A4B98473A4BFA22D2008E
:1029F0009A601D73384A1A6180221203374B5A615C
:102A0000374B9847374B9847374B9847234B1C70A9
:102A100038E000200021354B9847214BD875000A3B
:102A200018762E4B1A6A5423D10000D546231C4831
:102A30001902FF22047F2143C1611B0E2021435450
:102A4000016A1140A823DB010B4303620021242308
:102A5000C154436A1A409823DB011A4342620022A0
:102A60002823C2543621224B98471A48214B9847B5
:102A700004220A4B1A7005E016481E4B98470422A0
:102A8000064B1A701C4814211C4B9847002802D092
:102A900019491B4B9847F8BDA9440000500200207B
:102AA0006802002000010101341200008C5F000068
:102AB00049570000612B0000752B00009542000073
:102AC00081420000985F0000853B000099280000CB
:102AD000892B000054020020092800000044004116
:102AE000514300006D57000071250000612F000068
:102AF00031280000054600003C0200209123000020
:102B0000DD28000008B50E4900230B714B710B80C6
:102B100058228B520B1C08334831002204C38B42CD
:102B2000FCD1084B9847084B9847084B9847084BEF
:102B30009847084B9847084B9847084B984708BD5B
:102B4000800E0020A53E0000F9360000A12D0000F7
:102B50001D2C0000A12E0000713B00001D34000060
:102B600008B5024B1880024B984708BD800E002024
:102B7000D942000008B5024B5880024B984708BD67
:102B8000800E0020B942000002308000014BC1508D
:102B90007047C046800E0020024A5823D15A0131A6
:102BA000D1527047800E0020024A5823D15A013971
:102BB000D1527047800E002008B5044B9847044B53
:102BC0009847044B9847044B984708BDA13700002D
:102BD000B54000005D2C0000653C000008B50D4BC1
:102BE0001B68002B12D05A6882420CD102E05A684E
:102BF000824208D18522825C1A778822825C5A77C9
:102C000002221A7202E01B68002BF0D1024B984797
:102C100008BDC046A00200202D2E00000022014B5E
:102C20001A607047A00200200023037203774360FC
:102C3000084A5823D15A0131D152074B1B68002B47
:102C400003D10360044B186002E00360024B18607C
:102C50007047C046800E0020A002002038B54A4BC5
:102C60001A68002A00D18DE0141C237A002B02D0B0
:102C7000022B6DD082E0454B9847051E03D10223FD
:102C8000237223777EE0606001222272404B89210B
:102C90004354180A8A216854180C8B2168541B0E5F
:102CA0008C216B54A07B8008012318408821685434
:102CB000A17B1940E87A9043021C0A43EA72A17B87
:102CC000C90819408900D2B2042082430A43EA723B
:102CD000A27B520813405A00EB7A02218B43134324
:102CE000EB722C4B1A790132D2B21A712A731A780C
:102CF0006A735B78AB736389A27AEA731B0A2B74DD
:102D0000617B0F2319406A7C0F2082430A436A7457
:102D1000227B1201697C0B4013436B748123EB5CB3
:102D20008222A85C000218438323EB5C1B04184337
:102D30008423EB5C1B061843227D2169164B9847C0
:102D4000227D6B78D3186B70281C144B984719E0C0
:102D5000944203D10C4B22681A6006E013689C422F
:102D600001D01A1CFAE7236813600A4A5823D15A83
:102D70000139D152A369201C984703E02468002C34
:102D800000D072E738BDC046A0020020BD2D000073
:102D9000DD2B0000800E002049570000D93E0000C6
:102DA000044B054A991800221A708D338B42FBD1CF
:102DB0007047C046A40200208205000070B5184B81
:102DC0001B78002B07D0164A8D320123181C11786E
:102DD00000291DD100E00020114E8D2545437419B6
:102DE000201C00218D220F4B984710236370231C59
:102DF0008033201C12305870020A9A70020CDA706C
:102E0000000E1871084A5823D15A0131D15204E0FA
:102E100001338D320A2BD9D10024201C70BDC0464D
:102E2000A40200205B570000800E002000230370E6
:102E3000024A5823D15A0139D1527047800E0020DE
:102E4000002806D08D300C4B0C4A9B18984201D3B9
:102E50000FE009480378002B0CD1074A074BD21822
:102E600002E00378002B05D18D309042F9D3002089
:102E700000E000207047C046A40200208205000048
:102E800000228523C254054B1A790132D2B21A713D
:102E900002731A7842735B7883737047800E002048
:102EA000F0B5094A0232002301277F420648012675
:102EB00000251780D9000C5CB4430C541571013304
:102EC0000832642BF5D1F0BD2808002070B50B4AFC
:102ED00002320023094E1488844209D1DC00A45D2B
:102EE000A407E40F8C4203D1DD000448401904E03C
:102EF00001330832642BEED1002070BD2808002079
:102F000010B500221048C824A40001190378DC077A
:102F10000BD48379002B0CD0002A03D094799C42E7
:102F200002D802E0021C00E0021C08308842EDD109
:102F3000101C0378022293430F22134030221343C4
:102F400003708023837110BD280800200378DA07FE
:102F500004D401235B424380002383717047C04641
:102F600008B5044B9847002801D0808800E002484B
:102F700008BDC046CD2E0000FFFF0000F8B5061CBE
:102F80000D1C141C1F1C0C4B9847002801D10B4B27
:102F900098474680848001231D406B0005780222FB
:102FA00095431D430F231D4030231D43057080238F
:102FB0008371C771F8BDC046CD2E0000012F0000FF
:102FC00008B5034B9847002801D0024B984708BD2D
:102FD000CD2E00004D2F00007047C04610B5041CD8
:102FE000C37B007C000218431B4B984232D0E17A2D
:102FF0000907C90F194B984700282BD00378DA0727
:1030000028D48523E35C002B17D103780F221340CB
:1030100030221343037083790133DBB28371FF2BBA
:1030200018D10F498B1D0F4A89181A78520801329E
:103030001A7008338B42F8D10CE0027813090F3371
:103040000F210B401C010A4022430270002B01D1CA
:10305000054B984710BDC046FFFF0000CD2E000075
:1030600028080020260300004D2F000038B5041C5E
:10307000C27B007C000210430E4B984204D1012316
:103080005B42E371237214E0E37A5A0703D5E071DF
:10309000000A20720DE0E17A0907C90F064B984734
:1030A000E071030A2372034B984202D1201C034BA8
:1030B000984738BDFFFF0000612F00004934000031
:1030C000F0B5474680B4041CC27B067C360216432A
:1030D000C77A3F07FF0FF9B2301C284B9847284B9F
:1030E00098420FD000228923E2548A23E2548B2392
:1030F000E2548C23E25402228823E254201C214B08
:10310000984738E0627BA37B1B02134398461E4B13
:103110009847051E2CD01D4B98476B7806336B7073
:1031200000228923EA548A23EA548B23EA548C230D
:10313000EA54FF2143461940E9731A0A2A7481238D
:10314000E85C8223EB5C1B0203438320285C0004C1
:1031500003438420285C0006034301201870597043
:103160009A70DE70360A1E715F71281C054B9847F5
:10317000201C074B984704BC9046F0BD612F00000F
:10318000FFFF0000D93E0000BD2D0000812E000091
:103190002D2E000008B58268037B0020062B07D186
:1031A000D3781079000218435179024B98470120D7
:1031B00008BDC046C12F0000F0B50D4B00245D894D
:1031C000002D0ED01D8885420BD15D888D4208D11F
:1031D0001D79954205D163001F19BF000448C0192D
:1031E00004E001340C33052CE9D10020F0BDC046C9
:1031F0005C0B002010B5114B5B89002B07D00F4AE8
:1032000016320123181C1188002910D100E000207B
:10321000440020188000094C241800232372637294
:10322000FA239B0063810648064B984704E001336C
:103230000C32052BE6D10024201C10BD5C0B0020B5
:10324000480B002005460000F8B55F4656464D463F
:103250004446F0B48346264B1C1C0A341D1C3C33E8
:1032600098460027221C2388642B03D9643B2380C3
:1032700001272DE000232380AA4629881D480388C2
:10328000994225D1013A1278914600261BE0337805
:10329000402B18D1F17B337C1B02504642880B43F4
:1032A0009A4210D1F37A1B070279DB0F9A420AD1B6
:1032B0004946002903D0301C0F4B984703E0301CCF
:1032C00011210E4B9847301C0D498847061EDED150
:1032D0000C340C354545C5D1002F02D05846094B5A
:1032E00098473CBC90469946A246AB46F8BDC046BE
:1032F0005C0B0020800E0020D93E000061400000E1
:10330000412E00000546000070B5051C0E1C1E4B2A
:103310009847041E36D01D4B984763780733637077
:1033200000228923E2548A23E2548B23E2548C2323
:10333000E254E27A04231343E37201235B42E37312
:1033400023748123E25C8223E35C1B021343832208
:10335000A25C120413438422A25C120613430222CD
:103360001A702A885A70120A9A706A88A978D970D5
:10337000120A1A712A795A719E71201C044B9847BF
:10338000012000E0002070BDBD2D0000812E000056
:10339000D93E0000F8B5051C0F1C161C1C4B9847A5
:1033A000041E34D01B4B98476378083363700022A7
:1033B0008923E2548A23E2548B23E2548C23E2547F
:1033C00004228823E254EB88E3731B0A23748123CD
:1033D000E25C8223E35C1B0213438322A25C12049F
:1033E00013438422A25C1206134303221A70288816
:1033F0005870000A98706A88A978D970120A1A71F0
:103400002A795A719F71DE71201C034B9847F8BDD1
:10341000BD2D0000812E0000D93E0000074B002288
:103420005A81DA825A84DA855A87054B64229A6077
:1034300000221A73034A1A617047C0465C0B0020D1
:10344000480B00204932000010B5041C174B1888A7
:10345000E27B217C09021143E27A1207D20F144B5E
:103460009847002802D0402323701EE0114B984754
:10347000002816D00D4B1B880380E17B227C1202B2
:103480000A434280E37A1B07DB0F037101235B428F
:10349000C380FF21084B9847002802D040232370A7
:1034A00003E0201C1121054B984710BD800E002021
:1034B000B9310000F531000009330000614000001F
:1034C000F0B5474680B4051C8468037B0020072BB9
:1034D00069D16279002A5BD1344B1B88E07821796D
:1034E00009020143C91A48424141C9B2884661787C
:1034F000A07800020843834242D04146002902D10D
:103500001BB2002B3EDBA3796F7B5F433F0AE3785E
:10351000217909021943264B9847061E04D0037AE5
:103520000120BB4204D33EE0224B9847061E2BD01D
:103530006278A3781B0213433380E27823791B025D
:1035400013437380637933712B88F380377243465A
:10355000002B0FD06378A078000218432A8800213E
:103560003B1C154CA047301C391CFF22134B9847BD
:10357000012018E0301C391C114B9847012012E043
:10358000012010E001200EE001200CE001200AE003
:103590006378A07800021843044B1B889842F5D04A
:1035A00000218846ACE704BC9046F0BD800E0020A8
:1035B000B9310000F53100007D2F00009533000087
:1035C00009330000F8B5051C8468037B0020082B34
:1035D00043D16378A07800021843E3782179090287
:1035E000194362791D4B9847061CE3796A7B0028D2
:1035F00032D0A179477A01208F422ED2717267783A
:10360000A178090216480088394388420AD1E37834
:1036100020790002184361792A88A379114CA047C8
:1036200001201AE053431F0AE3782079000218436F
:1036300061792A883B1C0B4DA8476378A07800026B
:103640001843F288337A0021A847A179301C3A1C2C
:10365000054B9847012000E00120F8BDB93100007A
:10366000800E00207D2F00009533000008B5027BFE
:103670000023002A1BD082681378012B0AD0002B6C
:1036800004D0022B0AD0032B0CD00FE0094B984733
:10369000031C0CE0084B9847031C08E0074B9847B5
:1036A000031C04E0064B9847031C00E00023181C91
:1036B00008BDC0462540000095310000C13400001F
:1036C000C535000038B50A490B1D3131FF310024E2
:1036D00001251A78002A02D0013A1A702C1C0633F0
:1036E0008B42F6D1002C01D0024B984738BDC04622
:1036F000980B00200546000008B50A490B1D313122
:10370000FF3100221A7006338B42FBD1064B642234
:103710009A6000221A73054A1A6100200449054B79
:10372000984708BD980B0020C80C0020C536000043
:103730006D360000892B000010B5041C03685A7810
:10374000882A1AD11B7820229343412B15D1037963
:103750000F2B12D9094B984700280ED02023037055
:103760002379437062798523C254A2798623C25497
:10377000023022792168024B984710BDBD2D000010
:1037800049570000014B18707047C046C40C002018
:10379000002902D02223037001E024230370704724
:1037A000F0B557464E464546E0B484B00024D54DAA
:1037B000D54E2D36FF369FE12378203BDAB2042A1E
:1037C00000D999E19300D14AD3589F46242323700E
:1037D000E37A180700D58FE16179A27912020A43D2
:1037E000CB4B9A4214D1E27B237C1B021343C94A80
:1037F00012889A4203D0C64A934200D07CE1E37A11
:10380000990702D52123237076E12223237073E1E7
:10381000E17B227C12020A43BD4B9A4203D1E37A38
:10382000DA0700D568E1617BA37B1B02B94A1288E5
:103830000B439A4200D15FE1201CB74B9847B24B33
:103840000027B846A01C191C1A79002A37D0C27A62
:10385000077B3F02BC461F88BA4667463A439245FB
:103860002ED1227B9B789B1ADBB2072B1CD8CA78FF
:10387000101C1841C70712D5E179237A1B02A54A0B
:1038800012880B439A4200D036E1E27B207C000292
:103890001043E17A0907C90FA04B98472CE101209A
:1038A00098400243CA7051E18A70CA785B42DBB229
:1038B0009A4001231343CB7015230B7146E19846C0
:1038C0000633B342BFD14046002800D114E1617BEA
:1038D000A27B12020A430280237B83700123C37000
:1038E000152303718E488F4B98472FE1894B1A8817
:1038F000E07B237C1B0203439A4210D0E17A4F07FE
:103900000AD4201C884B9847824B1A88E07B237C82
:103910001B0203439A4202D07D498B4208D1E37ACD
:10392000980702D521232370E6E022232370E3E0E9
:10393000E179237A1B020B439A4200D0DCE0232377
:103940002370D9E0201C0021784B9847D4E0002256
:10395000774B1A70617C0909CAB2023292006D4B32
:10396000D258002A62D0A31C677BA07B0002384398
:1039700080466F463880E77B207C00020743B946CB
:10398000381C6F467880677C3F073F0F6846077199
:1039900041718121615C8220275C3F023943832091
:1039A000275C3F0439438420275C3F06394302915A
:1039B000591A8C4661786144684601738521615CBF
:1039C00041738621615C8173E37AD907C90F0227AD
:1039D0003B400B43DBB2E17A4907C90F49010B4376
:1039E000E17A0907C90F89010B4352490F1C4F4463
:1039F00079424F41BF003B43677AA17A09023943BC
:103A00004746781A41424841C000034368468371E3
:103A10006079A17909020143464FC91948424141E1
:103A200009010B4368468371904700E00020E37A68
:103A3000DB07DB171840E379227A12021A43344B72
:103A40009A420BD1E17B237C1B02324A12880B4342
:103A50009A4203D1E37A190700D401206379A2794D
:103A600012021A432A4B9A423CD02A4B1A88284BFE
:103A70009A4237D0002835D02F4B9847071E31D0B7
:103A80002E4B98477B7803337B7000228923FA54AE
:103A90008A23FA548B23FA548C23FA54E27A0223B1
:103AA0001A40FB7A02218B431343FB72627BA37B98
:103AB000FA733B748123FA5C8223FB5C1B02134381
:103AC0008322BA5C120413438422BA5C12061343A5
:103AD00000221A70164A12789A70227B5A70381C8B
:103AE000174B98472423237006E0201C154B98475A
:103AF00002E0201C144B9847201CA847041E00D04D
:103B00005AE62CE0412E0000980B0020AC5F00002C
:103B1000FFFF0000800E0020D92F0000C12F000001
:103B2000C80C002005460000993F00009D3B0000A6
:103B3000C40C00200100FFFFBD2D0000812E0000FD
:103B4000D93E0000C13000002D2E0000E179227A1C
:103B500012020A43054B9A4200D0D5E6C6E604B0ED
:103B60001CBC90469946A246F0BDC046FFFF00002F
:103B70000023024A1370024A13607047DC0C0020D5
:103B8000E00C002008B5011C02481022024B9847A7
:103B900008BDC046C80E002049570000002902D0C9
:103BA0003023037001E031230370024B1A78013295
:103BB0001A707047DC0C0020F0B5474680B4244BE7
:103BC0001E68244B1B7898468123F35C8222B15CEB
:103BD000090219438323F45C240421438423F45C05
:103BE0002406214341441C4B1B789C461F1C102B70
:103BF00000D91027FFB2002F16D0184B1D780B1CD0
:103C0000174A7C1EE4B20C1901341078197841402F
:103C10001970002D01D0117002E010784140117030
:103C200001330132A342F0D14346FA18094B1A700E
:103C30006346DF1BFFB2084B1F70002F02D03223F8
:103C4000337001E03423337004BC9046F0BDC046AD
:103C5000E00C0020E40C0020E50C0020E60C002025
:103C6000E80C002030B583B0564B1B78002B00D1F8
:103C7000A5E0554B1C68002C00D19BE02378342B29
:103C800045D18123E35C8222A15C0902194383238D
:103C9000E35C1B0419438423E35C1B0619434B4B71
:103CA0001B78C9184A4B5D681A6855409A68554098
:103CB000DB685D400095474B1B78002B09D0081C42
:103CC00069460422444B98476378043363700121AA
:103CD00008E001A80422404B9847019BE91A4D4295
:103CE0006941C9B23B4B1B78002B04D0364B186896
:103CF0003A4B984703E0344B1868394B98470022F9
:103D0000314B1A602F4B1A78013A1A7057E0322B58
:103D100055D1332323702E483249334B98474EE018
:103D20000378303B012B47D8274B1860284A017B8A
:103D30001160C17B047C24020C432404417C0909EA
:103D400021435160417B847B24020C432404417C49
:103D50000907090F21439160C17A447983791B02D5
:103D600023431B040B43D3600378312B02D14378E8
:103D7000043B4370831C8122815C8222825C12029C
:103D80000A438321415C09040A438421415C0906FA
:103D90000A439A1A4378D218144B1A7000220B4B1C
:103DA0001A700278303A53425A410A4B1A70322341
:103DB000037004E000200E4CA0470028B0D103B0EF
:103DC00030BDC046DC0C0020E00C0020E40C0020DC
:103DD000E80C0020E60C0020495700006D40000070
:103DE00091370000C80E0020C5440000E50C0020FB
:103DF000412E0000F0B5474680B4804600270020E1
:103E00000F4C8626872510E00378112B0DD1825D9B
:103E1000435D1B021343013B9BB283551A0A425573
:103E20000127002B01D113230370A0470028EBD1F9
:103E3000002F02D04046034B984704BC9046F0BD8B
:103E4000412E000005460000F0B5474680B480468C
:103E500000270020114C8626872513E00378162BB7
:103E600010D1825D435D1B021343013B9BB283551E
:103E70001A0A42550127002B04D117230370102280
:103E80008523C254A0470028E8D1002F02D0404625
:103E9000034B984704BC9046F0BDC046412E00003D
:103EA000054600000022074B1A60074B322199603B
:103EB0001A7306491961064B0A2199601A73054A5B
:103EC0001A6170470C0D0020F80C0020493E0000DC
:103ED000100D0020F53D000010B5041C8823C35CC4
:103EE000990702D51222027007E0C27A910702D523
:103EF0001022027001E01222027000218522A154DA
:103F0000DA0704D5012149426171A17104E01E491B
:103F100088786071C978A17105221A4203D1201CEA
:103F20001A4B984703E0E17B227CE1712272164A2A
:103F3000117861725178A17251790131C9B2517110
:103F40002171E179227A12020A43114B9A4210D16F
:103F50004123A37078235B42E3700E4B98470723FD
:103F6000184001308623E054000A80B28723E054D1
:103F700009E06123A37078235B42E370002286236B
:103F8000E2548723E25410BD800E00206D30000003
:103F9000FFFF0000C957000038B5051C1D4B9847AE
:103FA000041E36D0122303706B78437000228523E1
:103FB000C254194B98470723184001308623E05418
:103FC000000A80B28723E05400228923E2548A2326
:103FD000E2548B23E2548C23E254A01C6A78A91C7F
:103FE0000E4B98474123A37078235B42E370012373
:103FF0005B42E37123726A79AB796271A371084BFA
:104000001A7862725A78A2725A790132D2B25A710F
:10401000227138BDBD2D0000C9570000495700006E
:10402000800E002038B58568037B0020032B13D158
:104030000DE00378162B0CD1027B6B789A4208D1E5
:1040400017230370AA788823C254012004E00020BB
:10405000024CA0470028ECD138BDC046412E0000DC
:10406000172303708523C1547047C0461223037081
:104070007047C0460D4B1B68012809D0002803D0AB
:104080002122022805D001E0002202E0012200E006
:10409000202285215A5415221A700022034B1A60DF
:1040A000034A5823D15A0139D15270470C0D0020D0
:1040B000800E002070B50024374D384E66E023781E
:1040C000103BDAB2072A61D89300F3589F46201CB0
:1040D0000121334B984759E08623E25C8723E35C58
:1040E0001B02134305D0112323702E482E4B9847F3
:1040F0004CE01323237049E02C4B1B68002B45D167
:104100002A4B1C6014232370601C294B9847294AB2
:104110005823D15A0131D15238E08523E35C002B7A
:1041200019D1617BA37B1B02224A12880B439A425E
:104130000ED1E37ADA070BD51623237015228623D6
:10414000E25400228723E2541B48174B98471DE096
:10415000172323701AE01723237017E0201C174B36
:1041600098478923E25C8A23E35C1B0213438B227A
:10417000A25C120413438C22A25C1206134303D1E7
:10418000201C0F4B984701E0201C9847201CA84793
:10419000041E94D170BDC046412E0000C05F0000D7
:1041A0009D3B0000100D0020054600000C0D002076
:1041B00005430000800E0020F80C0020DD2F0000D9
:1041C0002D2E0000F8B5041C0B4F0C4E1F250220AD
:1041D0000321B8470120B04728400828F7D1064FEF
:1041E000064E1F250220211CB8470120B047284059
:1041F0008442F7D1F8BDC046354C00003D4B00006D
:1042000008B50820064B98470F20064B9847064BE9
:104210001B78002B02D01620014B984708BDC046E2
:10422000C54100003D4B0000A50D002070B50E4BB0
:1042300098470E4B984700220D4B1A7001220D4BE8
:104240001A700D4E0D4D1F2402200821B047012089
:10425000A84720400828F7D104202E21064CA0476B
:104260000C20A021A04770BDFD4900000D4B0000AF
:10427000A50D0020A40D0020354C00003D4B000092
:1042800008B5024B1870024B984708BDA50D0020D9
:104290000142000010B5041C0820054B98471F235D
:1042A000011C99430C43E1B20820024B984710BD12
:1042B0003D4B0000354C000030B583B06C46E080CB
:1042C000C1B22220034DA847E1792320A84703B0BB
:1042D00030BDC046354C000070B582B06D46E880F8
:1042E0000635C6B22020311C054CA0476D78212030
:1042F000291CA047AE19F1B22D20A04702B070BD15
:10430000354C000010B5041C19200C4B98470F20A9
:104310000B4B984721788B1C23700131C9B2201CAC
:10432000084B98470322084B1A70084B802252030F
:104330009A61C046C0465A6110BDC046C5410000E2
:104340003D4B0000714E0000A40D002000440041D0
:10435000F0B5474680B406200C4B98470024002552
:104360000B4B98460B4F03260120C0470620B84749
:1043700040093040A0400543ADB20234102CF3D1C7
:10438000054B9847281C04BC9046F0BDC541000071
:104390004D0100003D4B00000142000010B5041C1F
:1043A000081C00210022054B9847201C0021044BCB
:1043B0009847201C034B984710BDC0469548000005
:1043C00029480000CD490000F0B585B0264B1B7888
:1043D000022B46D00F20254B9847030741D5224B8F
:1043E0001B78012B24D10720204B9847071C6C46D3
:1043F0000734201C01211E4EB0471E4D217802318A
:10440000C9B2281CB04702A86A1C02922278911EE9
:104410000171AD186A7842715B3F8771164B9847FE
:10442000124D1F240120A84720401628FAD118E079
:10443000032B16D102200D4B98474409E4B2002CFF
:1044400007D0032C04D0053C631E9C41023400E0DD
:1044500001240A4B98470122034B1A70201C084B79
:10446000984705B0F0BDC046A40D00203D4B0000AC
:10447000314D0000240D00203937000001420000BA
:104480007540000008B5044B9847044B9847044B0F
:104490009847044B984708BD554500002548000043
:1044A0002D420000052B000008B5034B9847034B35
:1044B0009847034B984708BDC9430000B92B00003B
:1044C0002146000008B5024B9847024B984708BDAB
:1044D0009D430000B93B000030B5154B1D68002D11
:1044E0001ED0826869682C1C8A420AD204E059688E
:1044F000914203D81C1C04E02B1C0024891A59602B
:1045000003E0521A2368002BF1D14260002C03D043
:1045100023680360206009E00560054B186005E032
:104520000023036083684360014B186030BDC046C0
:10453000A80D002008B5044B1A780132D2B21A70C7
:104540000248034B984708BDDC0E002010270000EE
:104550001D55000010B50024064B1C700648074B83
:104560009847074B98470748074B9847074B1C60ED
:1045700010BDC046DC0E0020354500000D56000081
:1045800089550000102700001D550000A80D0020CF
:10459000104B1A68002A1BD0824216D109E09842BB
:1045A00001D01A1C11E0002A02D01968116004E041
:1045B0001A1C084B11681960131C1B68002B07D0CC
:1045C000426859688A185A6002E01368002BE6D1E5
:1045D0007047C046A80D0020094B1B68002B09D06E
:1045E000834202D108E0984208D01B68002BFAD120
:1045F000002004E0002002E0012000E001207047DC
:10460000A80D002010B5041C034B9847002802D1C8
:10461000201C024B984710BDD9450000D94400002A
:10462000F8B51A4B1B78002B2FD0EFF3108072B621
:10463000BFF35F8F0021164B1970144A1378DBB259
:104640001170002805D10121114A1170BFF35F8F4D
:1046500062B69D00ED186D000E4E371C0DE0ED1A90
:1046600023683B60237B012B02D1201C0A4B984717
:104670002369002B01D0201C98473468002C04D0FB
:1046800063689D42EBD25D1B6560F8BDDC0E0020C7
:1046900008000020A80D0020D944000008B5014BF7
:1046A000984708BDF155000008B5014B984708BD73
:1046B000A955000008B50248024B984780B208BDD2
:1046C000140F00209D1F0000034B102219680A736D
:1046D000597E914359767047140F002010B50A4C4B
:1046E00020680A4B98470A4B1B5C1F221A40012383
:1046F00093401A1C074B1A60627E102313436376A3
:10470000236810225A7310BD140F0020F11C000002
:10471000E05F000000E100E008B5021C0248002153
:10472000024B984708BDC046140F0020CD1F000063
:10473000F8B54F464646C0B42D4A00231370937017
:10474000002193809171138151709172D172117314
:1047500091735173117453619361117713625362B2
:104760001385938501235B425385224C201C2249EB
:10477000224B9847201C22490022224DA847201C8A
:1047800021490222A8472068204A91469047204BA1
:1047900098461B5C1F273B4001252A1C9A401D4E52
:1047A0003260627E01231343637620684573C847F5
:1047B0004246135C1F40BD403560627E10231343A8
:1047C00063762268102353737F21D37B8B43FCD104
:1047D000118802230B43138000200F4B98470F4989
:1047E0000F4B9847C0B20CBC90469946F8BDC046E6
:1047F000E00E0020140F0020002C0042291D0000B4
:10480000A9460000311C00009D460000F11C00007C
:10481000E05F000000E100E0E919000040420F0005
:10482000195600007047C04638B5031C0D1C144CC7
:10483000601C191C1022134B9847647C124B1B7888
:10484000002B08D083200E491222104B98470022DB
:104850000D4B1A7005E084200949013111220B4BE0
:104860009847002D05D0281C054901311022054B21
:104870009847034B5C741820054B984738BDC046D9
:10488000D00D002049570000E40D0020A95200007F
:104890004D010000F0B5474680B484B0051C0F1CE4
:1048A000141C002817D000223E4B1A7002223E4BE7
:1048B0001A703E48291C10223D4B984698473D4EA1
:1048C00010233370701C291C1022C0478320311C18
:1048D0001122394B9847002C02D0012C12D05AE0FB
:1048E000314B1B78012B3DD1324D10232B70681CAE
:1048F0002E4910222E4B98478320291C11222E4B23
:1049000098472FE0284B1B78012B2BD01022294BE6
:104910001A70244B1B78002B16D1264D2B70802348
:104920006B740122254B1A7068460021244B98476E
:1049300010232B708320291C01221F4B98478420B1
:1049400020491022204B98471A4D681C1D491022FF
:10495000174B98478320291C1122174B9847114B5E
:1049600001221A70104B1C70002F02D00020022F61
:1049700013D1E40008231C403F0170231F403C4337
:104980000C4B1C7080277F423C435C7401220B4B14
:104990001A70012001E00020FFE704B004BC90463B
:1049A000F0BDC046AC0D002009000020C00D002065
:1049B00049570000D00D0020954F0000E40D002065
:1049C00029480000B00D00200D51000008B5011C61
:1049D00084201022014B984708BDC0460D510000AD
:1049E00008B50122034B1A61034B1B68002B00D052
:1049F000984708BD00180040E80D002030B585B08C
:104A0000324A0023537093703F211170304C217053
:104A10006370A370012268464270837002703F2069
:104A200069462C4B98472378D9090022002903D1E5
:104A30005A09D201284952181F210B400121081C94
:104A400098409061254A117000235360936013745D
:104A500053749174D174137524215354D361136228
:104A600080235B02D3601E4B93611E4B9362012334
:104A70005B42D3621C4B13631C4B53631C4C201CC6
:104A80001C491D4B98472268D369002BFCD1136841
:104A900002252B43136001AC201C184B98472023A0
:104AA000019380239B0363602572012363720022BC
:104AB000A272E3720020211C114B9847114800217B
:104AC0000022114B984705B030BDC046340F00207E
:104AD000380F0020A9040000004400413C0F0020D2
:104AE000404B4C000500530005003E0005005200FD
:104AF000740F002000180042B90900001D040000D6
:104B000031040000E1490000B902000070B5094B12
:104B10001C1C803480252D02A561802252035A611D
:104B2000A5204000044EB04765610A20B047A5614A
:104B300070BDC046004400414D01000070B5061C28
:104B4000EFF3108463425C4172B6BFF35F8F0022C3
:104B5000334B1A70334D281C33490122334B98478D
:104B60002B6801211A7E0A42FCD01A7ED10702D599
:104B7000802216439E6202211A7E0A42FCD0042142
:104B80001A7E0A42FCD01A7E510714D55A8B51075F
:104B900003D5598B04220A435A83224A9279012A67
:104BA00005D1996AC905C90D214A118003E0996AA6
:104BB000C9B21F4A118001211A7E0A42FCD01A7E16
:104BC000D10701D500229A6202211A7E0A42FCD046
:104BD00004211A7E0A42FCD01A7E0025510710D506
:104BE0005A8B510703D5598B04220A435A830D4A25
:104BF0009279012A03D19D6AED05ED0D01E09D6AD0
:104C0000EDB2084808490022084B9847002C05D00F
:104C10000122034B1A70BFF35F8F62B6E8B270BD1A
:104C200008000020740F0020380F0020690C0000DD
:104C3000300F0020F8B5071C0D1CEFF31084634201
:104C40005C4172B6BFF35F8F0022344B1A70344E52
:104C5000301C34490122344B9847336801211A7EB5
:104C60000A42FCD01A7ED10702D5C02217439F62A8
:104C700002211A7E0A42FCD004211A7E0A42FCD08C
:104C80001A7E510714D55A8B510703D5598B04222C
:104C90000A435A83224A9279012A05D1996AC905A1
:104CA000C90D224A118003E0996AC9B21F4A1180D6
:104CB00001201A7E0242FCD01A7ED10700D59D62E7
:104CC00002211A7E0A42FCD004211A7E0A42FCD03C
:104CD0001A7E510714D55A8B510703D5598B0422DC
:104CE0000A435A830E4A9279012A05D19A6AD2055B
:104CF000D20D0E4B1A8003E09A6AD2B20B4B1A8087
:104D0000074808490022084B9847002C05D001228B
:104D1000024B1A70BFF35F8F62B6F8BD0800002027
:104D2000740F0020380F0020690C0000300F0020A5
:104D3000F0B55F4656464D464446F0B483B0061C77
:104D40000C1CEFF3108778427841019072B6BFF3E4
:104D50005F8F0022414B1A70414D281C41490122AE
:104D6000414B98472B6801211A7E0A42FCD01A7EDB
:104D7000D10701D520229A6202211A7E0A42FCD074
:104D800004201A7E0242FCD01A7E50070FD55A8B9F
:104D9000510703D5598B04220A435A83304A92792A
:104DA000012A09D19A6AD205D20D304B1A80631EAE
:104DB000DBB2002C05D13CE09A6AD2B22B4B1A80B0
:104DC000F5E701339B1999462020254A9046012496
:104DD00000239A4602250421171C042293464246CA
:104DE00013681A7E2242FCD01A7E224201D052461B
:104DF0009A621A7E2A42FCD01A7E0A42FCD03B6894
:104E00001A7E0A4211D05A8B0A4204D05A8B584655
:104E1000024392B25A8312488279012A03D1986AD6
:104E2000C005C00D01E0986AC0B2307001364E4531
:104E3000D5D10B480B4900220B4B9847019900290B
:104E400005D00122054B1A70BFF35F8F62B603B025
:104E50003CBC90469946A246AB46F0BD08000020F7
:104E6000740F0020380F0020690C0000300F002064
:104E7000F8B54F464646C0B4041C0D1CEFF310862F
:104E800071427141894672B6BFF35F8F00223C4B7D
:104E90001A703C4F381C3C4901223C4B98473B68F8
:104EA00001211A7E0A42FCD01A7ED10701D5602268
:104EB0009A6202211A7E0A42FCD004211A7E0A421A
:104EC000FCD01A7E51070FD55A8B510703D5598B49
:104ED00004220A435A832B4A9279012A0ED1996AF5
:104EE000C905C90D2A4A1180264A92799046261C86
:104EF000012702200424042294462BE0996AC9B2B7
:104F0000234A1180F0E71A7E3A42FCD031781A7EAB
:104F10003A4200D099621A7E0242FCD01A7E2242A6
:104F2000FCD01A7E224214D05A8B224204D05A8BD3
:104F300061460A4392B25A834246012A05D19A6ACF
:104F4000D205D20D12490A8003E09A6AD2B2104902
:104F50000A800136013DEDB2FF2DD4D109480A493E
:104F600000220A4B98474A46002A05D00122044BEA
:104F70001A70BFF35F8F62B60CBC90469946F8BDBD
:104F800008000020740F0020380F0020690C00007A
:104F9000300F0020F8B54F464646C0B4071C0C1C25
:104FA000151CEFF3108671427141894672B6BFF34A
:104FB0005F8F0022504B1A70504E301C5049012216
:104FC000504B9847336801211A7E0A42FCD01A7E62
:104FD000D10701D540229A6202211A7E0A42FCD0F2
:104FE00004211A7E0A42FCD01A7E510714D55A8B2E
:104FF000510703D5598B04220A435A833F4A9279B9
:10500000012A05D1996AC905C90D3F4A118003E0FB
:10501000996AC9B23C4A118001211A7E0A42FCD029
:105020001A7ED10700D59F6202211A7E0A42FCD067
:1050300004211A7E0A42FCD01A7E51070FD55A8BE2
:10504000510703D5598B04220A435A832B4A92797C
:10505000012A0ED1996AC905C90D2B4A1180274A28
:1050600092799046261C01270221042404229446AA
:105070002BE0996AC9B2244A1180F0E7187E3842C1
:10508000FCD03278187E384200D09A62187E0842EE
:10509000FCD0187E2042FCD0187E204214D0588BC1
:1050A000204204D0588B6246104380B25883424657
:1050B000012A05D1986AC005C00D134A108003E08B
:1050C000986AC0B2104A10800136013DEDB2FF2D42
:1050D000D4D10A480A4900220A4B98474B46002B74
:1050E00005D00122044B1A70BFF35F8F62B60CBC6F
:1050F00090469946F8BDC04608000020740F002075
:10510000380F0020690C0000300F0020F0B55F461A
:1051100056464D464446F0B483B0051C0E1C141C84
:1051200001205B4B9847EFF3108779427941019159
:1051300072B6BFF35F8F0022564B1A70564F381C61
:1051400056490122564B98473B6801211A7E0A4274
:10515000FCD01A7ED10701D500229A6202211A7E64
:105160000A42FCD00422197E1142FCD01A7E51075B
:1051700014D55A8B510703D5598B04220A435A83FD
:10518000454A9279012A05D1996AC905C90D454A4E
:10519000118003E0996AC9B2424A11800122197E46
:1051A0001142FCD01A7ED10700D59D620222197EE1
:1051B0001142FCD00422197E1142FCD01A7E510704
:1051C0000FD55A8B510703D5598B04220A435A83B2
:1051D000314A9279012A09D19A6AD205D20D314B0E
:1051E0001A80631EDBB2002C05D13BE09A6AD2B272
:1051F0002C4B1A80F5E701339B1999460021264A6A
:10520000904601248A4602250420171C0422934656
:10521000424613681A7E2242FCD01A7E224201D0F6
:1052200052469A621A7E2A42FCD01A7E0242FCD072
:105230003B681A7E024211D05A8B024204D05A8B2C
:1052400059460A4392B25A8313498A79012A03D1F3
:10525000996AC905C90D01E0996AC9B23170013670
:105260004E45D5D10C480D4900220D4B9847019A67
:10527000002A05D00122074B1A70BFF35F8F62B678
:1052800003B03CBC90469946A246AB46F0BDC04632
:105290004D01000008000020740F0020380F00208E
:1052A000690C0000300F0020F0B55F4656464D46B1
:1052B0004446F0B483B0051C8846141C0120834B7F
:1052C000984700200021824B9847824E301C82492B
:1052D0000122824B9847336801211A7E0A42FCD092
:1052E0001A7ED00701D540229A6202211A7E0A4214
:1052F000FCD004211A7E0A42FCD01A7E510714D534
:105300005A8B560703D5598B04220A435A83714A94
:105310009279012A05D1996AC905C90D704A11808F
:1053200003E0996AC9B26E4A118001211A7E0A42CD
:10533000FCD01A7ED00700D59D6202211A7E0A4257
:10534000FCD00422197E1142FCD01A7E510714D5DC
:105350005A8B560703D5598B04220A435A835D4A58
:105360009279012A05D1996AC905C90D5C4A118053
:1053700003E0996AC9B25A4A11800122197E11428A
:10538000FCD0404601781A7ED60700D599620222E9
:10539000197E1142FCD00422197E1142FCD01A7EE3
:1053A00050070FD55A8B510703D5598B04220A4356
:1053B0005A83484A9279012A08D19A6AD205D20DB5
:1053C000474B1A800021002C47D004E09A6AD2B2E1
:1053D000434B1A80F6E74546013CE4B20194231C96
:1053E000434401339B4600213A4B9A460120022454
:1053F000042299465F46564633681E7E0642FCD01C
:10540000AC466E78B3461E7E064201D05E469E6272
:105410001E7E2642FCD01E7E1642FCD04E463368CD
:105420001E7E164211D0598B114204D0598B04268E
:10543000314389B25983274EB179012903D1996A41
:10544000C905C90D01E0996AC9B2634619700135F1
:10545000BD42D0D1019B013398441E4B1B680120F3
:105460001A7E0242FCD01A7ED60701D500229A622B
:1054700002201A7E0242FCD004201A7E0242FCD096
:105480001A7E500710D55A8B510703D5598B042229
:105490000A435A830F4A9279012A03D1996AC905AE
:1054A000C90D01E0996AC9B24246117009480A491A
:1054B00000220A4B9847002000210A4B984703B06E
:1054C0003CBC90469946A246AB46F0BD4D0100005B
:1054D00009030000740F0020380F0020690C000041
:1054E000300F0020E902000010B5074B9847074B2A
:1054F0009847074B98470122064B1A70BFF35F8FFE
:1055000062B6054CA047FDE70D1C0000110100002C
:1055100001290000080000203929000010B5041CF2
:10552000134B9847134B1A7862438118124B5960FA
:105530005968090C59605B68002B07D00E4B5968FD
:105540000132801818810D4B984704E082180A4BED
:105550001A810B4B9847084B1B89632B02D8643385
:10556000054A1381044B1889064B984710BDC04665
:10557000B5460000800F0020EC0D0020C946000059
:10558000DD4600001947000008B50022034B1A70E1
:10559000034B9847034B187008BDC046EC0D002024
:1055A00031470000800F002008B50E4B5B68002BD0
:1055B00007D00C4A5368013B5360002B01D10A4BC2
:1055C0009847084A13780133DBB21370074A127800
:1055D0009A4206D8034B00221A70DB68002B00D0D9
:1055E000984708BDEC0D0020DD460000800F00202C
:1055F00008B5044B9847044B1B69002B00D0984713
:1056000008BDC046C9460000EC0D0020014B1861E2
:105610007047C046EC0D0020002934D00123002241
:1056200010B488422CD301242407A14204D2814221
:1056300002D209011B01F8E7E400A14204D2814231
:1056400002D249005B00F8E7884201D3401A1A43AE
:105650004C08A04202D3001B5C0822438C08A042E5
:1056600002D3001B9C082243CC08A04202D3001B9B
:10567000DC082243002803D01B0901D00909E3E715
:10568000101C10BC7047002801D00020C04307B494
:10569000024802A14018029003BDC0461900000054
:1056A0000029F0D003B5FFF7B9FF0EBC4243891AB9
:1056B0001847C0467047C0469C460304F0B51B0C13
:1056C00017043F0C150C1E1C041C000C7E436B437E
:1056D00047434543FB18300C1818874202D98023F2
:1056E0005B02ED18030CED1863465C434A43360435
:1056F000360CA118000480194919F0BD70B50E4B85
:105700000E4D0024ED1AAD101E1CAC4204D0A300B7
:10571000F35898470134F8E700F098FC084B094D1E
:105720000024ED1AAD101E1CAC4204D0A300F358A7
:1057300098470134F8E770BD5860000058600000D9
:10574000586000005C60000010B50023934203D055
:10575000CC5CC4540133F9E710BD031C821893429A
:1057600002D019700133FAE77047000038B5104BCA
:10577000051C1C68A36B002B15D1182000F06AFAD9
:105780000C4BA06303800C4B43800C4B83800C4B71
:10579000C3800C4B0381052343810B2383810122AA
:1057A000002302614361A36B00221D615A6138BD71
:1057B0006C0000200E330000CDABFFFF3412000060
:1057C0006DE6FFFFECDEFFFF174B10B51C68A36B07
:1057D000002B15D1182000F03DFA144BA063038074
:1057E000134B4380134B8380134BC380134B0381B4
:1057F000052343810B23838101220023026143613E
:10580000084B074AA46B20696169FFF755FF012225
:10581000002380185941206161614800400810BD93
:105820002D7F954C2DF451586C0000200E33000054
:10583000CDABFFFF341200006DE6FFFFECDEFFFF93
:1058400008B54A424A4180235200DB0000F002F8CA
:1058500008BD0000F7B51E1C3C4B041C1D680F1C46
:105860000192002D05D0AA69002A02D1281C00F05F
:1058700081F9374B9C4201D16C6808E0354B9C4262
:1058800001D1AC6803E0344B9C4200D1EC68019B31
:10589000022B57D8002E55DB281C211C00F0EAF8FB
:1058A00000236360A361A3891A0603D5281C21691C
:1058B00000F0DAF9A38983229343A381019B022B91
:1058C00013D0002F25D1002E01D18026F600301CE8
:1058D00000F0C0F9071E18D18020C00000F0BAF90E
:1058E000071E10D10120404200E00020A3890222BF
:1058F0001343A3810023A360231C47332360236148
:105900000123636120E08026F600A38980221343EF
:10591000A381019A012A04D1A3891343A38173426D
:10592000A3610E4B0020AB62A389276027616661EB
:105930001A0709D5032213405A4253415B421E40C5
:10594000A66001E001204042FEBDC0466C00002080
:10595000EC5F00000C6000002C600000CD5A0000DD
:10596000F7B58B89051C0C1C19075ED46268002AE8
:1059700002DC276C002F1ADDE76A002F17D0002207
:105980002E682A60802252011A4001D0626D15E013
:10599000281C216A0123B847021C411C0ED12B6828
:1059A000002B0BD01D2B01D0162B02D12E60002016
:1059B0005EE0A38940210B43A38159E0A3895F07DF
:1059C00006D56168636B521A002B01D0276CD21B7D
:1059D000281C216A0023E76AB847A289411C06D126
:1059E0002B68002B03D01D2B01D0162B19D10023BF
:1059F000636023692360D70405D5411C02D12A685E
:105A0000002A00D16065616B2E600029CFD0231C75
:105A10004433994202D0281C00F026F9002060632C
:105A200026E040231A43A28122E02669002EBED040
:105A300027680022BF1B01972660990700D1626981
:105A4000A260019F002FB2DD281C216A321C019B3D
:105A5000A76AB847002806DCA38940221343012027
:105A6000A381404204E0019F36183F1A0197E8E7FE
:105A7000FEBD00000A6938B5051C0C1C002A01D1C6
:105A800000201CE0002804D08369002B01D100F025
:105A900071F80B4B9C4201D16C6808E0094B9C42A9
:105AA00001D1AC6803E0084B9C4200D1EC680C22A9
:105AB000A35E002BE4D0281C211CFFF751FF38BD4A
:105AC000EC5F00000C6000002C600000F8B5041CC6
:105AD000071C4834002C12D0A5686668013E0CD41F
